{
  "contractName": "AdvancedCoinFlip",
  "abi": [
    {
      "inputs": [
        {
          "internalType": "address",
          "name": "_randomGeneratorAddress",
          "type": "address"
        }
      ],
      "payable": false,
      "stateMutability": "nonpayable",
      "type": "constructor"
    },
    {
      "anonymous": false,
      "inputs": [
        {
          "indexed": false,
          "internalType": "address",
          "name": "player",
          "type": "address"
        },
        {
          "indexed": false,
          "internalType": "string",
          "name": "won",
          "type": "string"
        }
      ],
      "name": "FlipEvent",
      "type": "event"
    },
    {
      "anonymous": false,
      "inputs": [
        {
          "indexed": false,
          "internalType": "address",
          "name": "funder",
          "type": "address"
        },
        {
          "indexed": false,
          "internalType": "uint256",
          "name": "amount",
          "type": "uint256"
        }
      ],
      "name": "FundEvent",
      "type": "event"
    },
    {
      "anonymous": false,
      "inputs": [
        {
          "indexed": false,
          "internalType": "uint256",
          "name": "amount",
          "type": "uint256"
        }
      ],
      "name": "WithDrawEvent",
      "type": "event"
    },
    {
      "constant": false,
      "inputs": [],
      "name": "fund",
      "outputs": [],
      "payable": true,
      "stateMutability": "payable",
      "type": "function"
    },
    {
      "constant": false,
      "inputs": [
        {
          "internalType": "uint256",
          "name": "amount",
          "type": "uint256"
        }
      ],
      "name": "withdraw",
      "outputs": [],
      "payable": true,
      "stateMutability": "payable",
      "type": "function"
    },
    {
      "constant": false,
      "inputs": [
        {
          "internalType": "uint8",
          "name": "flipGuess",
          "type": "uint8"
        }
      ],
      "name": "flip",
      "outputs": [
        {
          "internalType": "string",
          "name": "",
          "type": "string"
        }
      ],
      "payable": true,
      "stateMutability": "payable",
      "type": "function"
    },
    {
      "constant": false,
      "inputs": [
        {
          "internalType": "uint8",
          "name": "randomNumber",
          "type": "uint8"
        },
        {
          "internalType": "address",
          "name": "gambler",
          "type": "address"
        }
      ],
      "name": "checkWin",
      "outputs": [
        {
          "internalType": "string",
          "name": "",
          "type": "string"
        }
      ],
      "payable": true,
      "stateMutability": "payable",
      "type": "function"
    }
  ],
  "bytecode": "0x608060405234801561001057600080fd5b50604051610c02380380610c028339818101604052602081101561003357600080fd5b8101908080519060200190929190505050336000806101000a81548173ffffffffffffffffffffffffffffffffffffffff021916908373ffffffffffffffffffffffffffffffffffffffff16021790555080600160006101000a81548173ffffffffffffffffffffffffffffffffffffffff021916908373ffffffffffffffffffffffffffffffffffffffff16021790555050610b2d806100d56000396000f3fe60806040526004361061003f5760003560e01c80632e1a7d4d146100445780635a459d1814610072578063638c06371461013c578063b60d4288146101e6575b600080fd5b6100706004803603602081101561005a57600080fd5b81019080803590602001909291905050506101f0565b005b6100c16004803603604081101561008857600080fd5b81019080803560ff169060200190929190803573ffffffffffffffffffffffffffffffffffffffff169060200190929190505050610365565b6040518080602001828103825283818151815260200191508051906020019080838360005b838110156101015780820151818401526020810190506100e6565b50505050905090810190601f16801561012e5780820380516001836020036101000a031916815260200191505b509250505060405180910390f35b61016b6004803603602081101561015257600080fd5b81019080803560ff1690602001909291905050506107ab565b6040518080602001828103825283818151815260200191508051906020019080838360005b838110156101ab578082015181840152602081019050610190565b50505050905090810190601f1680156101d85780820380516001836020036101000a031916815260200191505b509250505060405180910390f35b6101ee61096f565b005b3373ffffffffffffffffffffffffffffffffffffffff166000809054906101000a900473ffffffffffffffffffffffffffffffffffffffff1673ffffffffffffffffffffffffffffffffffffffff1614610295576040517f08c379a0000000000000000000000000000000000000000000000000000000008152600401808060200182810382526022815260200180610a5c6022913960400191505060405180910390fd5b4781106102e4573373ffffffffffffffffffffffffffffffffffffffff166108fc479081150290604051600060405180830381858888f193505050501580156102e2573d6000803e3d6000fd5b505b3373ffffffffffffffffffffffffffffffffffffffff166108fc829081150290604051600060405180830381858888f1935050505015801561032a573d6000803e3d6000fd5b507faa0f467562fc100394628b7f9a5e5e791b8ce77cb4b0c687a53702932a43e49f816040518082815260200191505060405180910390a150565b6060670de0b6b3a7640000600260008473ffffffffffffffffffffffffffffffffffffffff1673ffffffffffffffffffffffffffffffffffffffff1681526020019081526020016000206001015410156103be57600080fd5b6000600260008473ffffffffffffffffffffffffffffffffffffffff1673ffffffffffffffffffffffffffffffffffffffff16815260200190815260200160002060000160009054906101000a900460ff1690506000600260008573ffffffffffffffffffffffffffffffffffffffff1673ffffffffffffffffffffffffffffffffffffffff16815260200190815260200160002060010154905060008490506000600260008773ffffffffffffffffffffffffffffffffffffffff1673ffffffffffffffffffffffffffffffffffffffff168152602001908152602001600020600101819055508260ff168660ff1614156106cd574782600202106105a7578073ffffffffffffffffffffffffffffffffffffffff166108fc479081150290604051600060405180830381858888f19350505050158015610504573d6000803e3d6000fd5b507f40b8ba789732619d7eee420c7f2816edeb5388daa0779bf92a490cb3a6bc4e3881604051808273ffffffffffffffffffffffffffffffffffffffff1673ffffffffffffffffffffffffffffffffffffffff1681526020018060200182810382526052815260200180610a7e605291396060019250505060405180910390a1604051806080016040528060528152602001610a7e6052913993505050506107a5565b8073ffffffffffffffffffffffffffffffffffffffff166108fc836002029081150290604051600060405180830381858888f193505050501580156105f0573d6000803e3d6000fd5b507f40b8ba789732619d7eee420c7f2816edeb5388daa0779bf92a490cb3a6bc4e3881604051808273ffffffffffffffffffffffffffffffffffffffff1673ffffffffffffffffffffffffffffffffffffffff168152602001806020018281038252600b8152602001807f594f5520574f4e212121210000000000000000000000000000000000000000008152506020019250505060405180910390a16040518060400160405280600b81526020017f594f5520574f4e2121212100000000000000000000000000000000000000000081525093505050506107a5565b7f40b8ba789732619d7eee420c7f2816edeb5388daa0779bf92a490cb3a6bc4e3881604051808273ffffffffffffffffffffffffffffffffffffffff1673ffffffffffffffffffffffffffffffffffffffff16815260200180602001828103825260048152602001807f4c6f7365000000000000000000000000000000000000000000000000000000008152506020019250505060405180910390a16040518060400160405280602081526020017f4f68206e6f2120596f752068617665206c6f737420796f7572206d6f6e65792181525093505050505b92915050565b6060670de0b6b3a764000034101561080e576040517f08c379a0000000000000000000000000000000000000000000000000000000008152600401808060200182810382526029815260200180610ad06029913960400191505060405180910390fd5b60008260ff161480610823575060018260ff16145b61082c57600080fd5b60405180604001604052808360ff16815260200134815250600260003373ffffffffffffffffffffffffffffffffffffffff1673ffffffffffffffffffffffffffffffffffffffff16815260200190815260200160002060008201518160000160006101000a81548160ff021916908360ff16021790555060208201518160010155905050600160009054906101000a900473ffffffffffffffffffffffffffffffffffffffff1673ffffffffffffffffffffffffffffffffffffffff166366f83e91336040518263ffffffff1660e01b8152600401808273ffffffffffffffffffffffffffffffffffffffff1673ffffffffffffffffffffffffffffffffffffffff168152602001915050600060405180830381600087803b15801561095257600080fd5b505af1158015610966573d6000803e3d6000fd5b50505050919050565b600034116109c8576040517f08c379a0000000000000000000000000000000000000000000000000000000008152600401808060200182810382526026815260200180610a366026913960400191505060405180910390fd5b7f8674c517851b3695d3e5b6d30650f3cd2bce6e6c650ef891eec143cc2f46ace53334604051808373ffffffffffffffffffffffffffffffffffffffff1673ffffffffffffffffffffffffffffffffffffffff1681526020018281526020019250505060405180910390a156fe46756e64696e672076616c75652068617320746f2062652067726561746572207468616e2030596f75206f6e6c792063616e20776974686472617720617320616e206f776e657221594f5520574f4e2121212120285361646c7920776520646f6e74206861766520656e6f75676874206d6f6e657920746f2070617920796f75207468652077686f6c652077696e6e696e6720616d6f756e7421596f75206e656564206174206c65617374203165746820746f20706c617920746869732067616d6521a265627a7a723158208d4f61042a00c8c4476f30d13f135ae1ad329002cbc23e2e34e4f649cf59422364736f6c63430005100032",
  "source": "pragma solidity >=0.4.16 <0.8.0;\n\nimport './RandomGeneratorContract.sol';\n\ncontract AdvancedCoinFlip {\n\n    address private owner;\n    address private randomGeneratorAddress;\n\n    struct Gamble {\n        uint8 guess;\n        uint256 payin;\n    }\n\n    mapping (address => Gamble) private gambleStates;\n\n    constructor(address _randomGeneratorAddress) public{\n        owner = msg.sender;\n        randomGeneratorAddress = _randomGeneratorAddress;\n    }\n\n    // funding \n    function fund() payable public {\n        require(msg.value > 0, \"Funding value has to be greater than 0\");\n        emit FundEvent(msg.sender, msg.value);\n    }\n\n    // withdraw\n    function withdraw(uint amount) public payable {\n        require(owner == msg.sender, \"You only can withdraw as an owner!\");\n        \n        if(amount >= address(this).balance) {\n            msg.sender.transfer(address(this).balance);\n        }\n        \n        msg.sender.transfer(amount);\n        emit WithDrawEvent(amount);\n    }\n\n    // flip\n    function flip(uint8 flipGuess) public payable returns(string memory) {\n        require(msg.value >= 1000000000000000000, \"You need at least 1eth to play this game!\");\n        \n        // check if flipGuess is either 0 or 1\n        require(flipGuess == 0 || flipGuess == 1);\n\n        // store the current gamble state for the user\n        gambleStates[msg.sender] = Gamble(flipGuess, msg.value);        \n        \n        // call generator Contract\n        RandomGeneratorContract(randomGeneratorAddress).getRandom(msg.sender);\n    } \n\n    function checkWin(uint8 randomNumber, address gambler) public payable returns(string memory) {\n        require(gambleStates[gambler].payin >= 1000000000000000000);\n\n        uint8 flipGuess = gambleStates[gambler].guess;\n        uint256 payin = gambleStates[gambler].payin;\n\n        address payable payAdd = address(uint160(gambler));\n\n        gambleStates[gambler].payin = 0;\n\n        if(randomNumber == flipGuess) {\n            // he has won!!!\n            \n            if(2*payin >= address(this).balance) {\n                payAdd.transfer(address(this).balance);\n                emit FlipEvent(payAdd,\"YOU WON!!!! (Sadly we dont have enought money to pay you the whole winning amount!\");\n\n                return \"YOU WON!!!! (Sadly we dont have enought money to pay you the whole winning amount!\";\n            }\n\n\n            payAdd.transfer(2*payin);\n            emit FlipEvent(payAdd,\"YOU WON!!!!\");\n            return \"YOU WON!!!!\";\n\n        }else {\n            emit FlipEvent(payAdd, \"Lose\");\n            return \"Oh no! You have lost your money!\";\n        }\n\n\n    }\n\n\n    // events \n    event FundEvent(address funder, uint amount);\n\n    event WithDrawEvent(uint amount);\n\n    event FlipEvent(address player, string won);\n}",
  "sourcePath": "/Users/diego/development/smartcontract-learning/contracts/contracts/AdvancedCoinFlip.sol",
  "compiler": {
    "name": "solc",
    "version": "0.5.16+commit.9c3226ce.Emscripten.clang"
  },
  "schemaVersion": "3.3.4",
  "updatedAt": "2021-02-24T18:03:38.919Z",
  "networkType": "ethereum",
  "devdoc": {
    "methods": {}
  },
  "userdoc": {
    "methods": {}
  }
}