{
  "contractName": "Dao",
  "abi": [
    {
      "inputs": [],
      "payable": false,
      "stateMutability": "nonpayable",
      "type": "constructor"
    },
    {
      "constant": false,
      "inputs": [],
      "name": "pay",
      "outputs": [],
      "payable": true,
      "stateMutability": "payable",
      "type": "function"
    },
    {
      "constant": true,
      "inputs": [],
      "name": "accountValue",
      "outputs": [
        {
          "internalType": "uint256",
          "name": "",
          "type": "uint256"
        }
      ],
      "payable": false,
      "stateMutability": "view",
      "type": "function"
    },
    {
      "constant": false,
      "inputs": [
        {
          "internalType": "uint256",
          "name": "amount",
          "type": "uint256"
        }
      ],
      "name": "withdraw",
      "outputs": [],
      "payable": true,
      "stateMutability": "payable",
      "type": "function"
    }
  ],
  "bytecode": "0x608060405234801561001057600080fd5b50336000806101000a81548173ffffffffffffffffffffffffffffffffffffffff021916908373ffffffffffffffffffffffffffffffffffffffff1602179055506000600160003373ffffffffffffffffffffffffffffffffffffffff1673ffffffffffffffffffffffffffffffffffffffff16815260200190815260200160002081905550610406806100a56000396000f3fe6080604052600436106100345760003560e01c80631b9265b8146100395780632e1a7d4d14610043578063793c2baa14610071575b600080fd5b61004161009c565b005b61006f6004803603602081101561005957600080fd5b8101908080359060200190929190505050610188565b005b34801561007d57600080fd5b5061008661031c565b6040518082815260200191505060405180910390f35b600034905060003390506000600160008373ffffffffffffffffffffffffffffffffffffffff1673ffffffffffffffffffffffffffffffffffffffff168152602001908152602001600020549050600081141561013c5782600160008473ffffffffffffffffffffffffffffffffffffffff1673ffffffffffffffffffffffffffffffffffffffff16815260200190815260200160002081905550610183565b828101600160008473ffffffffffffffffffffffffffffffffffffffff1673ffffffffffffffffffffffffffffffffffffffff168152602001908152602001600020819055505b505050565b60003390506000600160008373ffffffffffffffffffffffffffffffffffffffff1673ffffffffffffffffffffffffffffffffffffffff1681526020019081526020016000205490508281101561022a576040517f08c379a00000000000000000000000000000000000000000000000000000000081526004018080602001828103825260328152602001806103646032913960400191505060405180910390fd5b6001831015610284576040517f08c379a000000000000000000000000000000000000000000000000000000000815260040180806020018281038252603c815260200180610396603c913960400191505060405180910390fd5b6000838203905080600160008573ffffffffffffffffffffffffffffffffffffffff1673ffffffffffffffffffffffffffffffffffffffff168152602001908152602001600020819055508273ffffffffffffffffffffffffffffffffffffffff166108fc859081150290604051600060405180830381858888f19350505050158015610315573d6000803e3d6000fd5b5050505050565b6000600160003373ffffffffffffffffffffffffffffffffffffffff1673ffffffffffffffffffffffffffffffffffffffff1681526020019081526020016000205490509056fe596f752063616e7420676574206d6f7265206d6f6e6579206f7574207468616e20796f75207061796564206265666f72652154686520616d6f756e7420796f752077616e7420746f2077697468647261772068617320746f2062652067726561746572206f7220657175616c2031a265627a7a7231582093c539436dc15b66db356be9b91477e7fcc1ebc8c42231389328d632b107cb3964736f6c63430005100032",
  "source": "pragma solidity >=0.4.16 <0.9.0;\n\ncontract Dao {\n\n    address private owner;\n\n    // geld abspeichern\n    mapping(address => uint) internal balances;\n\n    constructor() public {\n        owner = msg.sender;\n        balances[msg.sender] = 0;\n    }\n\n    /**\n     * Here you can pay money into the contract so at a later point you can withdraw it!\n     */\n    function pay() public payable {\n        uint payed = msg.value;\n        address receiver = msg.sender;\n        uint oldFunds = balances[receiver];\n\n        if(oldFunds == 0) {\n            balances[receiver] = payed;\n        }else {\n            balances[receiver] = oldFunds + payed;\n        }\n    }\n\n    /**\n     * Allows you to see how much money is stored in your account\n     */\n    function accountValue() public view returns(uint) {\n        return balances[msg.sender];\n    }\n\n    /**\n     * Allows you to withdraw money from the contract\n     */\n    function withdraw(uint amount) payable public {\n        address payable sender = msg.sender;\n        uint funds = balances[sender];\n\n        // we cant withdraw more money than we own\n        require(funds >= amount, \"You cant get more money out than you payed before!\");\n        require(amount >= 1, \"The amount you want to withdraw has to be greater or equal 1\");\n\n        uint newFunds = funds - amount;\n        balances[sender] = newFunds;\n\n        sender.transfer(amount);\n    }\n}",
  "sourcePath": "/Users/diego/development/smartcontract-learning/contracts/contracts/Dao.sol",
  "compiler": {
    "name": "solc",
    "version": "0.5.16+commit.9c3226ce.Emscripten.clang"
  },
  "schemaVersion": "3.3.4",
  "updatedAt": "2021-02-24T18:03:38.901Z",
  "networkType": "ethereum",
  "devdoc": {
    "methods": {}
  },
  "userdoc": {
    "methods": {
      "accountValue()": {
        "notice": "Allows you to see how much money is stored in your account"
      },
      "pay()": {
        "notice": "Here you can pay money into the contract so at a later point you can withdraw it!"
      },
      "withdraw(uint256)": {
        "notice": "Allows you to withdraw money from the contract"
      }
    }
  }
}