{
  "contractName": "RandomGeneratorContract",
  "abi": [
    {
      "anonymous": false,
      "inputs": [
        {
          "indexed": false,
          "internalType": "address",
          "name": "receiver",
          "type": "address"
        }
      ],
      "name": "RandomGeneratorEvent",
      "type": "event"
    },
    {
      "constant": false,
      "inputs": [
        {
          "internalType": "address",
          "name": "gambler",
          "type": "address"
        }
      ],
      "name": "getRandom",
      "outputs": [],
      "payable": false,
      "stateMutability": "nonpayable",
      "type": "function"
    }
  ],
  "bytecode": "0x6080604052348015600f57600080fd5b506101098061001f6000396000f3fe6080604052348015600f57600080fd5b506004361060285760003560e01c806366f83e9114602d575b600080fd5b606c60048036036020811015604157600080fd5b81019080803573ffffffffffffffffffffffffffffffffffffffff169060200190929190505050606e565b005b7f435e67a299e3afa480ba32db008048f05ae616c93906e9ade8c7ec21859da81f81604051808273ffffffffffffffffffffffffffffffffffffffff1673ffffffffffffffffffffffffffffffffffffffff16815260200191505060405180910390a15056fea265627a7a72315820d4a53852f962ba827a22cf06798108dfb911068398a1d05a6a60cde7d6809e5664736f6c63430005100032",
  "source": "pragma solidity >=0.4.16 <0.9.0;\n\ncontract RandomGeneratorContract {\n\n    function getRandom(address gambler) public {\n        emit RandomGeneratorEvent(gambler);\n    }\n\n    event RandomGeneratorEvent(address receiver);\n\n}",
  "sourcePath": "/Users/diego/development/smartcontract-learning/contracts/contracts/RandomGeneratorContract.sol",
  "compiler": {
    "name": "solc",
    "version": "0.5.16+commit.9c3226ce.Emscripten.clang"
  },
  "schemaVersion": "3.3.4",
  "updatedAt": "2021-02-24T18:03:38.916Z",
  "networkType": "ethereum",
  "devdoc": {
    "methods": {}
  },
  "userdoc": {
    "methods": {}
  }
}