{
  "contractName": "CoinFlip",
  "abi": [
    {
      "inputs": [],
      "payable": false,
      "stateMutability": "nonpayable",
      "type": "constructor"
    },
    {
      "anonymous": false,
      "inputs": [
        {
          "indexed": false,
          "internalType": "address",
          "name": "player",
          "type": "address"
        },
        {
          "indexed": false,
          "internalType": "string",
          "name": "won",
          "type": "string"
        }
      ],
      "name": "FlipEvent",
      "type": "event"
    },
    {
      "anonymous": false,
      "inputs": [
        {
          "indexed": false,
          "internalType": "address",
          "name": "funder",
          "type": "address"
        },
        {
          "indexed": false,
          "internalType": "uint256",
          "name": "amount",
          "type": "uint256"
        }
      ],
      "name": "FundEvent",
      "type": "event"
    },
    {
      "anonymous": false,
      "inputs": [
        {
          "indexed": false,
          "internalType": "uint256",
          "name": "amount",
          "type": "uint256"
        }
      ],
      "name": "WithDrawEvent",
      "type": "event"
    },
    {
      "constant": false,
      "inputs": [],
      "name": "fund",
      "outputs": [],
      "payable": true,
      "stateMutability": "payable",
      "type": "function"
    },
    {
      "constant": false,
      "inputs": [
        {
          "internalType": "uint256",
          "name": "amount",
          "type": "uint256"
        }
      ],
      "name": "withdraw",
      "outputs": [],
      "payable": true,
      "stateMutability": "payable",
      "type": "function"
    },
    {
      "constant": false,
      "inputs": [
        {
          "internalType": "uint8",
          "name": "flipGuess",
          "type": "uint8"
        }
      ],
      "name": "flip",
      "outputs": [
        {
          "internalType": "string",
          "name": "",
          "type": "string"
        }
      ],
      "payable": true,
      "stateMutability": "payable",
      "type": "function"
    }
  ],
  "bytecode": "0x608060405234801561001057600080fd5b50336000806101000a81548173ffffffffffffffffffffffffffffffffffffffff021916908373ffffffffffffffffffffffffffffffffffffffff16021790555061075a806100606000396000f3fe6080604052600436106100345760003560e01c80632e1a7d4d14610039578063638c063714610067578063b60d428814610111575b600080fd5b6100656004803603602081101561004f57600080fd5b810190808035906020019092919050505061011b565b005b6100966004803603602081101561007d57600080fd5b81019080803560ff169060200190929190505050610290565b6040518080602001828103825283818151815260200191508051906020019080838360005b838110156100d65780820151818401526020810190506100bb565b50505050905090810190601f1680156101035780820380516001836020036101000a031916815260200191505b509250505060405180910390f35b61011961059c565b005b3373ffffffffffffffffffffffffffffffffffffffff166000809054906101000a900473ffffffffffffffffffffffffffffffffffffffff1673ffffffffffffffffffffffffffffffffffffffff16146101c0576040517f08c379a00000000000000000000000000000000000000000000000000000000081526004018080602001828103825260228152602001806106896022913960400191505060405180910390fd5b47811061020f573373ffffffffffffffffffffffffffffffffffffffff166108fc479081150290604051600060405180830381858888f1935050505015801561020d573d6000803e3d6000fd5b505b3373ffffffffffffffffffffffffffffffffffffffff166108fc829081150290604051600060405180830381858888f19350505050158015610255573d6000803e3d6000fd5b507faa0f467562fc100394628b7f9a5e5e791b8ce77cb4b0c687a53702932a43e49f816040518082815260200191505060405180910390a150565b6060670de0b6b3a76400003410156102f3576040517f08c379a00000000000000000000000000000000000000000000000000000000081526004018080602001828103825260298152602001806106fd6029913960400191505060405180910390fd5b60008260ff161480610308575060018260ff16145b61031157600080fd5b60006002428161031d57fe5b0690508260ff168114156104c1577f40b8ba789732619d7eee420c7f2816edeb5388daa0779bf92a490cb3a6bc4e3833604051808273ffffffffffffffffffffffffffffffffffffffff1673ffffffffffffffffffffffffffffffffffffffff16815260200180602001828103825260048152602001807f576f6e21000000000000000000000000000000000000000000000000000000008152506020019250505060405180910390a1473460020210610439573373ffffffffffffffffffffffffffffffffffffffff166108fc479081150290604051600060405180830381858888f19350505050158015610417573d6000803e3d6000fd5b506040518060800160405280605281526020016106ab60529139915050610597565b3373ffffffffffffffffffffffffffffffffffffffff166108fc346002029081150290604051600060405180830381858888f19350505050158015610482573d6000803e3d6000fd5b506040518060400160405280600b81526020017f594f5520574f4e21212121000000000000000000000000000000000000000000815250915050610597565b7f40b8ba789732619d7eee420c7f2816edeb5388daa0779bf92a490cb3a6bc4e3833604051808273ffffffffffffffffffffffffffffffffffffffff1673ffffffffffffffffffffffffffffffffffffffff16815260200180602001828103825260048152602001807f4c6f7365000000000000000000000000000000000000000000000000000000008152506020019250505060405180910390a16040518060400160405280602081526020017f4f68206e6f2120596f752068617665206c6f737420796f7572206d6f6e6579218152509150505b919050565b600034116105f5576040517f08c379a00000000000000000000000000000000000000000000000000000000081526004018080602001828103825260268152602001806106636026913960400191505060405180910390fd5b7f8674c517851b3695d3e5b6d30650f3cd2bce6e6c650ef891eec143cc2f46ace53334604051808373ffffffffffffffffffffffffffffffffffffffff1673ffffffffffffffffffffffffffffffffffffffff1681526020018281526020019250505060405180910390a156fe46756e64696e672076616c75652068617320746f2062652067726561746572207468616e2030596f75206f6e6c792063616e20776974686472617720617320616e206f776e657221594f5520574f4e2121212120285361646c7920776520646f6e74206861766520656e6f75676874206d6f6e657920746f2070617920796f75207468652077686f6c652077696e6e696e6720616d6f756e7421596f75206e656564206174206c65617374203165746820746f20706c617920746869732067616d6521a265627a7a7231582067489306b6dc472adc7eb2a39d2a3b661a13c77523b34e5107fa303cf1a5697264736f6c63430005100032",
  "source": "pragma solidity >=0.4.16 <0.9.0;\n\ncontract CoinFlip {\n\n    address private owner;\n\n    constructor() public{\n        owner = msg.sender;\n    }\n\n    // funding \n    function fund() payable public {\n        require(msg.value > 0, \"Funding value has to be greater than 0\");\n        emit FundEvent(msg.sender, msg.value);\n    }\n\n    // withdraw\n    function withdraw(uint amount) public payable {\n        require(owner == msg.sender, \"You only can withdraw as an owner!\");\n        \n        if(amount >= address(this).balance) {\n            msg.sender.transfer(address(this).balance);\n        }\n        \n        msg.sender.transfer(amount);\n        emit WithDrawEvent(amount);\n    }\n\n    // flip\n    function flip(uint8 flipGuess) public payable returns(string memory) {\n        require(msg.value >= 1000000000000000000, \"You need at least 1eth to play this game!\");\n        \n        // check if flipGuess is either 0 or 1\n        require(flipGuess == 0 || flipGuess == 1);\n\n        uint randomNumber = block.timestamp % 2;\n        if(randomNumber == flipGuess) {\n            // he has won!!!\n            emit FlipEvent(msg.sender,\"Won!\");\n\n            if(2*msg.value >= address(this).balance) {\n                msg.sender.transfer(address(this).balance);\n                return \"YOU WON!!!! (Sadly we dont have enought money to pay you the whole winning amount!\";\n            }\n\n            msg.sender.transfer(2*msg.value);\n            return \"YOU WON!!!!\";\n\n        }else {\n            emit FlipEvent(msg.sender, \"Lose\");\n            return \"Oh no! You have lost your money!\";\n        }\n    } \n\n\n    // events \n    event FundEvent(address funder, uint amount);\n\n    event WithDrawEvent(uint amount);\n\n    event FlipEvent(address player, string won);\n}",
  "sourcePath": "/Users/diego/development/smartcontract-learning/contracts/CoinFlip.sol",
  "compiler": {
    "name": "solc",
    "version": "0.5.16+commit.9c3226ce.Emscripten.clang"
  },
  "schemaVersion": "3.3.4",
  "updatedAt": "2021-02-20T21:05:15.112Z",
  "networkType": "ethereum",
  "devdoc": {
    "methods": {}
  },
  "userdoc": {
    "methods": {}
  }
}