{
  "contractName": "Dao",
  "abi": [
    {
      "inputs": [],
      "payable": false,
      "stateMutability": "nonpayable",
      "type": "constructor"
    },
    {
      "constant": false,
      "inputs": [],
      "name": "pay",
      "outputs": [],
      "payable": true,
      "stateMutability": "payable",
      "type": "function"
    },
    {
      "constant": false,
      "inputs": [
        {
          "internalType": "uint256",
          "name": "amount",
          "type": "uint256"
        }
      ],
      "name": "withdraw",
      "outputs": [],
      "payable": false,
      "stateMutability": "nonpayable",
      "type": "function"
    }
  ],
  "bytecode": "0x608060405234801561001057600080fd5b50336000806101000a81548173ffffffffffffffffffffffffffffffffffffffff021916908373ffffffffffffffffffffffffffffffffffffffff1602179055506000600160003373ffffffffffffffffffffffffffffffffffffffff1673ffffffffffffffffffffffffffffffffffffffff16815260200190815260200160002081905550610396806100a56000396000f3fe6080604052600436106100295760003560e01c80631b9265b81461002e5780632e1a7d4d14610038575b600080fd5b610036610073565b005b34801561004457600080fd5b506100716004803603602081101561005b57600080fd5b810190808035906020019092919050505061015f565b005b600034905060003390506000600160008373ffffffffffffffffffffffffffffffffffffffff1673ffffffffffffffffffffffffffffffffffffffff16815260200190815260200160002054905060008114156101135782600160008473ffffffffffffffffffffffffffffffffffffffff1673ffffffffffffffffffffffffffffffffffffffff1681526020019081526020016000208190555061015a565b828101600160008473ffffffffffffffffffffffffffffffffffffffff1673ffffffffffffffffffffffffffffffffffffffff168152602001908152602001600020819055505b505050565b60003390506000600160008373ffffffffffffffffffffffffffffffffffffffff1673ffffffffffffffffffffffffffffffffffffffff16815260200190815260200160002054905082811015610201576040517f08c379a00000000000000000000000000000000000000000000000000000000081526004018080602001828103825260328152602001806102f46032913960400191505060405180910390fd5b600183101561025b576040517f08c379a000000000000000000000000000000000000000000000000000000000815260040180806020018281038252603c815260200180610326603c913960400191505060405180910390fd5b6000838203905080600160008573ffffffffffffffffffffffffffffffffffffffff1673ffffffffffffffffffffffffffffffffffffffff168152602001908152602001600020819055508273ffffffffffffffffffffffffffffffffffffffff166108fc859081150290604051600060405180830381858888f193505050501580156102ec573d6000803e3d6000fd5b505050505056fe596f752063616e7420676574206d6f7265206d6f6e6579206f7574207468616e20796f75207061796564206265666f72652154686520616d6f756e7420796f752077616e7420746f2077697468647261772068617320746f2062652067726561746572206f7220657175616c2031a265627a7a7231582057bff317ed13f25929b3828f6f573fd62c1019eb9b7749f2e867b8c5a77e529d64736f6c63430005100032",
  "source": "pragma solidity >=0.4.16 <0.9.0;\n\ncontract Dao {\n\n    address private owner;\n\n    // geld abspeichern\n    mapping(address => uint) internal balances;\n\n    constructor () public {\n        owner = msg.sender;\n        balances[msg.sender] = 0;\n    }\n\n    // pay\n    function pay() public payable {\n        uint payed = msg.value;\n        address receiver = msg.sender;\n        uint oldFunds = balances[receiver];\n\n        if(oldFunds == 0) {\n            balances[receiver] = payed;\n        }else {\n            balances[receiver] = oldFunds + payed;\n        }\n    }\n\n    // withdraw\n    function withdraw(uint amount) public {\n        address payable sender = msg.sender;\n        uint funds = balances[sender];\n\n        // we cant withdraw more money than we own\n        require(funds >= amount, \"You cant get more money out than you payed before!\");\n        require(amount >= 1, \"The amount you want to withdraw has to be greater or equal 1\");\n\n        uint newFunds = funds - amount;\n        balances[sender] = newFunds;\n\n        sender.transfer(amount);\n    }\n}",
  "sourcePath": "/Users/diego/development/smartcontract-learning/contracts/Dao.sol",
  "compiler": {
    "name": "solc",
    "version": "0.5.16+commit.9c3226ce.Emscripten.clang"
  },
  "schemaVersion": "3.3.4",
  "updatedAt": "2021-02-17T14:51:23.790Z",
  "networkType": "ethereum",
  "devdoc": {
    "methods": {}
  },
  "userdoc": {
    "methods": {}
  }
}