{
  "contractName": "HelloWorld",
  "abi": [
    {
      "constant": true,
      "inputs": [],
      "name": "hello",
      "outputs": [
        {
          "internalType": "string",
          "name": "",
          "type": "string"
        }
      ],
      "payable": false,
      "stateMutability": "view",
      "type": "function"
    },
    {
      "constant": false,
      "inputs": [
        {
          "internalType": "string",
          "name": "_name",
          "type": "string"
        }
      ],
      "name": "set",
      "outputs": [],
      "payable": false,
      "stateMutability": "nonpayable",
      "type": "function"
    }
  ],
  "bytecode": "0x60806040526040518060400160405280600581526020017f446965676f0000000000000000000000000000000000000000000000000000008152506000908051906020019061004f929190610062565b5034801561005c57600080fd5b50610107565b828054600181600116156101000203166002900490600052602060002090601f016020900481019282601f106100a357805160ff19168380011785556100d1565b828001600101855582156100d1579182015b828111156100d05782518255916020019190600101906100b5565b5b5090506100de91906100e2565b5090565b61010491905b808211156101005760008160009055506001016100e8565b5090565b90565b610338806101166000396000f3fe608060405234801561001057600080fd5b50600436106100365760003560e01c806319ff1d211461003b5780634ed3885e146100be575b600080fd5b610043610179565b6040518080602001828103825283818151815260200191508051906020019080838360005b83811015610083578082015181840152602081019050610068565b50505050905090810190601f1680156100b05780820380516001836020036101000a031916815260200191505b509250505060405180910390f35b610177600480360360208110156100d457600080fd5b81019080803590602001906401000000008111156100f157600080fd5b82018360208201111561010357600080fd5b8035906020019184600183028401116401000000008311171561012557600080fd5b91908080601f016020809104026020016040519081016040528093929190818152602001838380828437600081840152601f19601f820116905080830192505050505050509192919290505050610244565b005b6060600060405160200180807f48656c6c6f200000000000000000000000000000000000000000000000000000815250600601828054600181600116156101000203166002900480156102035780601f106101e1576101008083540402835291820191610203565b820191906000526020600020905b8154815290600101906020018083116101ef575b5050807f2100000000000000000000000000000000000000000000000000000000000000815250600101915050604051602081830303815290604052905090565b806000908051906020019061025a92919061025e565b5050565b828054600181600116156101000203166002900490600052602060002090601f016020900481019282601f1061029f57805160ff19168380011785556102cd565b828001600101855582156102cd579182015b828111156102cc5782518255916020019190600101906102b1565b5b5090506102da91906102de565b5090565b61030091905b808211156102fc5760008160009055506001016102e4565b5090565b9056fea265627a7a72315820c34029f26b56c9c7be62567584f5f69fb097d37caf676357daa8532a1da6726a64736f6c63430005100032",
  "source": "pragma solidity >=0.4.16 <0.9.0;\n\ncontract HelloWorld {\n  \n  string private name = \"Diego\";\n\n  function hello() public view returns(string memory) {\n    return string(abi.encodePacked(\"Hello \", name, \"!\"));\n  }\n\n  function set(string memory _name) public {\n    name = _name;\n  }\n\n}\n\n",
  "sourcePath": "/Users/diego/development/smartcontract-learning/contracts/HelloWorld.sol",
  "compiler": {
    "name": "solc",
    "version": "0.5.16+commit.9c3226ce.Emscripten.clang"
  },
  "schemaVersion": "3.3.4",
  "updatedAt": "2021-02-20T20:05:26.273Z",
  "networkType": "ethereum",
  "devdoc": {
    "methods": {}
  },
  "userdoc": {
    "methods": {}
  }
}